:100000000C9462000C948A000C948A000C948A0070
:100010000C948A000C948A000C948A000C948A0038
:100020000C948A000C948A000C948A000C948A0028
:100030000C948A000C948A000C948A000C948A0018
:100040000C9493020C948A000C9495010C948A00F1
:100050000C948A000C948A000C948A000C948A00F8
:100060000C948A000C948A000000000024002700F1
:100070002A0000000000250028002B0000000000DE
:1000800023002600290004040404040404040202DA
:100090000202020203030303030301020408102007
:1000A0004080010204081020010204081020000012
:1000B0000007000201000003040600000000000029
:1000C00000001A0211241FBECFEFD4E0DEBFCDBF67
:1000D00011E0A0E0B1E0E6EBF6E002C005900D9281
:1000E000A431B107D9F711E0A4E1B1E001C01D923C
:1000F000AC3BB107E1F710E0C4ECD0E004C02297BC
:10010000FE010E945503C23CD107C9F70E948C0230
:100110000C9459030C94000080EA91E040E855E209
:1001200060E070E00E94BD018091000160E00E94EB
:10013000E40080E092E090931901809318011092FE
:100140001B0110921A010895CF93DF9380EA91E08A
:100150000E94080184309105A0F1C4E1D1E005C0FE
:1001600080EA91E00E943501899381E0C831D80787
:10017000B9F780911401909115018130910581F0BA
:1001800082309105B1F00097E1F4809116019091D1
:10019000170120911A0130911B01820F931F0DC08E
:1001A00080EA91E068E171E044E050E00E946D0275
:1001B00008C0809116019091170190931B018093C4
:1001C0001A01DF91CF91089590E0FC01E656FF4FB0
:1001D0002491FC01EA57FF4FE491EE23C1F0F0E0D7
:1001E000EE0FFF1FE859FF4F85919491DC016623C4
:1001F00041F49FB7F8948C91209582238C939FBFF4
:1002000008959FB7F8948C91822B8C939FBF08958B
:10021000FC0182819381FC01E058FF4F20813181F4
:100220008E579F4FFC0180819181281B390B2F77BE
:100230003070C9010895FC0182819381FC01EE5761
:10024000FF4F20813181FC01E058FF4F40815181F7
:100250004217530731F0820F931FFC01208130E0D9
:1002600002C02FEF3FEFC9010895DC0112962D91D6
:100270003C911397F901EE57FF4F80819181D9018D
:10028000A058BF4F4D915C9111974817590759F0ED
:10029000280F391FD9012C9101968F779070918387
:1002A000808330E002C02FEF3FEFC9010895DC01E9
:1002B00012968D919C911397FC01E058FF4F8E5739
:1002C0009F4FDC018D919C911197918380830895BC
:1002D000FC01A085B18521898C9190E0022E02C09D
:1002E000959587950A94E2F780FFF6CF0484F5850B
:1002F000E02D60830895FB01E058FF4F408151815C
:100300009A012F5F3F4F2F773070DB01AE57BF4F01
:100310000D90BC91A02D2A173B0731F0640F751F7B
:10032000DB018C933183208308951F920F920FB6C7
:100330000F9211242F933F934F935F936F937F936B
:100340008F939F93AF93BF93EF93FF938091C600DA
:100350006CE171E00E947B01FF91EF91BF91AF9141
:100360009F918F917F916F915F914F913F912F91CD
:100370000F900FBE0F901F901895CF93DF93EC0155
:100380009A01AB01E885F985203081EE380780E0DD
:10039000480780E0580709F449C081E090E00A88E6
:1003A00002C0880F991F0A94E2F7808360E079E029
:1003B0008DE390E00E94380321503040404050408F
:1003C000CA01B90122E030E040E050E00E94380369
:1003D000EC81FD813083EE81FF812083EA85FB85FE
:1003E000408181E090E09C010E8402C0220F331F07
:1003F0000A94E2F7422B4083EA85FB8540819C0109
:100400000F8402C0220F331F0A94E2F7422B40836D
:10041000EA85FB852081088802C0880F991F0A940D
:10042000E2F7282B2083DF91CF910895108220E1FD
:1004300030E0CECF86E091E09093A1018093A001BF
:100440008CE191E09093A3018093A20185EC90E070
:100450009093A5018093A40184EC90E09093A70170
:100460008093A60180EC90E09093A9018093A8016D
:1004700081EC90E09093AB018093AA0186EC90E030
:100480009093AD018093AC0184E08093AE0183E052
:100490008093AF0187E08093B00185E08093B10144
:1004A00081E08093B20108950F931F93CF93DF9360
:1004B000EC01062F172F07C0E881F9810190F08128
:1004C000E02DCE010995F80161918F016623A1F716
:1004D000DF91CF911F910F910895EF92FF920F93AB
:1004E0001F93CF93DF937C01EB018A010BC06991CD
:1004F000D701ED91FC910190F081E02DC7010995A4
:10050000015010400115110591F7DF91CF911F9116
:100510000F91FF90EF9008950E94DB020E948C00E3
:100520000E94A400FDCF1F920F920FB60F921124CC
:100530002F933F938F939F93AF93BF938091B70176
:100540009091B801A091B901B091BA013091BB016D
:100550000196A11DB11D232F2D5F2D3720F02D57A2
:100560000196A11DB11D2093BB018093B70190930B
:10057000B801A093B901B093BA018091B3019091F1
:10058000B401A091B501B091B6010196A11DB11DB4
:100590008093B3019093B401A093B501B093B601D9
:1005A000BF91AF919F918F913F912F910F900FBE6F
:1005B0000F901F901895789484B5826084BD84B59F
:1005C000816084BD85B5826085BD85B5816085BD4E
:1005D000EEE6F0E0808181608083E1E8F0E0108267
:1005E000808182608083808181608083E0E8F0E0A8
:1005F000808181608083E1EBF0E080818460808392
:10060000E0EBF0E0808181608083EAE7F0E08081C8
:100610008460808380818260808380818160808328
:100620008081806880831092C1000895A1E21A2E13
:10063000AA1BBB1BFD010DC0AA1FBB1FEE1FFF1F86
:10064000A217B307E407F50720F0A21BB30BE40BD6
:10065000F50B661F771F881F991F1A9469F760951D
:100660007095809590959B01AC01BD01CF010895D7
:1006700097FB092E05260ED057FD04D0D7DF0AD0F0
:10068000001C38F450954095309521953F4F4F4FC1
:100690005F4F0895F6F790958095709561957F4F1F
:1006A0008F4F9F4F0895EE0FFF1F0590F491E02D9F
:0606B0000994F894FFCF4D
:1006B600020000000000680154026D0208013501C5
:0406C6001B015701BC
:00000001FF
